:020000040000FA
:100000000A128A110C283F34FE00030EF0000A0881
:10001000F1000A168A11042B0A128A110F2883177D
:10002000B330FD001E30FE00DE30FF00A73084003C
:100030000A168A155D270A128A118313E730FD001C
:100040001F30FE000430FF00DA3084000A168A15E3
:100050005D270A128A110A128A1103200A128A11D4
:10006000FB00A0308400DA300A168A1598260A129E
:100070008A11523084005B300A168A1598260A12BB
:100080008A11FA0183010A128A1146280130831667
:100090000317A500A301831603136408831603172F
:1000A0009F0083160313650883160317A0008316A9
:1000B0000313660883160317A100A730840090304D
:1000C00083120313CE000C30CF0083170008D0003A
:1000D000040AD1004E08840050088000040ACE00B3
:1000E00051088400CF0B652883160317A2010A1656
:1000F0008A11A6230A128A119F3083120313A000CB
:100100000130A100A2010A168A1105260A128A11DD
:100110003730F5009130F60000300A168A1122229D
:100120000A128A110A168A1534270A128A117208CD
:1001300083120313CE007308CF00D001D101510800
:10014000F9005008F8004F08F7004E08F60000309C
:100150000A128A15AF200A128A1179088312031332
:10016000B1007808B0007708AF007608AE004130E3
:10017000AD002430AC00CC30AB00CD30AA000A1268
:100180008A1536260A128A11831203132D08C70016
:100190002C08C6002B08C5002A08C4000A168A11BC
:1001A0008A270A128A11831203134408831603173D
:1001B000A4000A128A1523200A128A118316031733
:1001C000A600C8309C0000309D0001309C02003029
:1001D000031C9D039D021C0A031DF2281D0A031D1A
:1001E000F228F328E5283E302606031DF828F928D2
:1001F00016299F30F2005730F3009130F4000A16B0
:100200008A15DF270A128A119F3083120313A00078
:100210000130A10083160317240883120313A200E0
:100220000A168A1105260A128A119A2B3D302606D3
:10023000031D1B291C294D290630220203182129E0
:1002400022294D299F30F200220883120313CE0089
:100250004E07903E840083170008F300840A0008CC
:100260008403F4000A168A15DF270A128A11013066
:1002700083160317A2079F3083120313A0000130D7
:10028000A10083160317240883120313A2000A1681
:100290008A1105260A128A119A2B3B302606031D65
:1002A00052295329702922080319572958297029DE
:1002B0000130A2029F30F200220883120313CE0005
:1002C0004E07903E840083170008F300840A00085C
:1002D0008403F4000A168A15DF270A128A113B29C3
:1002E000373026060319752976297C292F302606F2
:1002F000031D7B297C29BA292503031D8029812917
:10030000BA290230A5000A168A1511270A128A1185
:10031000043083120313CF003D30CE00CE0B8E2964
:10032000CF0B8E292430F6009030F7008130F80092
:100330000A168A11A3220A128A11F201C5300A167E
:100340008A159E270A128A11F2010F300A168A15A1
:100350009E270A128A11A53083120313CE00CE0BFA
:10036000AF29B229113083160317A3008312031398
:1003700012159A2B10302606031DBF29C029D82933
:10038000663025060319C529C629CC2988302506DB
:10039000031DCB29CC29D8290A168A1511270A1240
:1003A0008A11033083160317A5005530A3009A2B3A
:1003B00010302606031DDD29DE29932A0330250689
:1003C000031DE329E429932A831203131211802ABF
:1003D0006630A5008130A3000A168A1511270A127B
:1003E0008A11513083120313A0009130A1008316AB
:1003F0000317240883120313A2000A168A11052684
:100400000A128A119A2B7730A5000A168A1511272D
:100410000A128A119A2B4E3083120313A0009130D6
:10042000A10083160317240883120313A2000A16DF
:100430008A1105260A128A110A168A1511270A122C
:100440008A11883083160317A5009A2B6030831217
:100450000313A0009130A100831603172408831210
:100460000313A2000A168A1105260A128A110A1617
:100470008A1511270A128A11993083160317A500CD
:100480008230A3009A2B5A3083120313A0009130BC
:10049000A10083160317240883120313A2000A166F
:1004A0008A1105260A128A110A168A1511270A12BC
:1004B0008A11A03083160317A5001130A3009130D4
:1004C000F6009030F7008130F8000A168A11A32256
:1004D0000A128A11F201C5300A168A159E270A12DD
:1004E0008A11F2010F300A168A159E270A128A1104
:1004F000A53083120313CE00CE0B7C2A7F2A9A2BC1
:10050000831603171E08003A0319E829013A031954
:10051000032A033A03190B2A013A0319262A073A38
:100520000319432AB52A20302606031D982A992A42
:10053000B52A6630250603199E2A9F2AAB2A033066
:1005400025060319A42AA52AAB2A88302506031DEF
:10055000AA2AAB2AB52A0A168A1511270A128A1165
:10056000013083160317A5009A2B9A2B9F30831214
:100570000313A20083160317240883120313A30096
:100580000A168A1103250A128A11B62B0130831626
:100590000317A500F2010C300A168A159E270A12CD
:1005A0008A11A53083120313CE00CE0BD52AD82A88
:1005B0000A168A1511270A128A11831203131211BF
:1005C000B62B033083160317A5005530A300F201A4
:1005D0000C300A168A159E270A128A11A53083123A
:1005E0000313CE00CE0BF22AF52A0A168A1511271C
:1005F0000A128A119228230883120313A200831679
:10060000031726080A128A1599240A128A11333A06
:100610000319C62A773A0319E12AB62B831203136A
:10062000121583160317230883120313A2008316DF
:10063000031726080A128A1565210A128A118316E1
:1006400003179E0033301E06031D272B282BB62BC5
:100650000A168A1511270A128A1101308316031708
:10066000A500DD2A230883120313A20083160317B3
:1006700026080A128A151B220A128A11B62B0A169C
:100680008A11F9210A128A11FF3A031D482B492BBE
:10069000B62B0A168A1511270A128A114B308312BB
:1006A0000313A0009130A1008316031724088312BE
:1006B0000313A2000A168A1105260A128A110330B2
:1006C00083160317A5005530A30092280A128A1535
:1006D00055230A128A11FF3A031D6F2B702BB62B7C
:1006E0000A168A1511270A128A115F2B2308831212
:1006F0000313A2008316031726080A128A11BE23C9
:100700000A128A11FF3A031D862B872BB62B702BFA
:10071000230883120313A2008316031726080A1264
:100720008A1170260A128A11FF3A031D982B992B01
:10073000B62B702B831603172508013A0319B62A26
:10074000033A0319FB2A013A03190E2B653A0319E0
:10075000322B113A03193F2BFF3A0319662B113A3A
:100760000319762B393A0319882BB62B22308316BE
:100770000317A30092280A128A110C28831203136C
:10078000A60082302206031DC62BC72B562C0A1644
:100790008A11B6240A128A110F30831603134805F2
:1007A00083120313A3008316031347080F39831220
:1007B0000313A400A5012408F2002508F3000A3061
:1007C000F4000030F5000A168A1186210A128A11F7
:1007D000831203132308720783160313AA00003041
:1007E000031801307307AB000F304A05831203135F
:1007F000A3008316031349080F3983120313A400BF
:10080000A5012408F2002508F3000A30F4000030A6
:10081000F5000A168A1186210A128A11831203131F
:100820002308720783160313AC000030031801304D
:100830007307AD000F304C0583120313A30083161A
:1008400003134B080F3983120313A400A5012408D6
:10085000F2002508F3000A30F4000030F5000A1613
:100860008A1186210A128A11831203132308720740
:1008700083160313AE000030031801307307AF0076
:100880004330F6009030F7008030F8000A168A11E5
:10089000A3220A128A113F3083120313A600831683
:1008A0000313B801023083120313D300103026065D
:1008B000031D5B2C5C2C682C5308A3002307AA3E65
:1008C0008400013083138007840A0318800A512DA5
:1008D00020302606031D6D2C6E2C782C0130D3029F
:1008E000530A031D742C752C512D0230D300512D49
:1008F00030302606031D7D2C7E2C512D0A30F2004F
:100900000030F300831603132B08F5002A08F400C7
:100910000A168A116E230A128A11720883120313AF
:10092000A3007308A4000A30F2000030F30083161D
:1009300003132B08F5002A08F4000A168A11E52390
:100940000A128A11720883120313A50003300310E0
:10095000A50DFF3E031DA72C0310250D2304F90050
:1009600002300A168A1164210A128A110A30F20032
:100970000030F300831603132D08F5002C08F40053
:100980000A168A116E230A128A117208831203133F
:10099000A3007308A4000A30F2000030F3008316AD
:1009A00003132D08F5002C08F4000A168A11E5231C
:1009B0000A128A11720883120313A5000330031070
:1009C000A50DFF3E031DDF2C0310250D2304F900A8
:1009D00001300A168A1164210A128A110A30F200C3
:1009E0000030F300831603132F08F5002E08F400DF
:1009F0000A168A116E230A128A11720883120313CF
:100A0000A3007308A4000A30F2000030F30083163C
:100A100003132F08F5002E08F4000A168A11E523A7
:100A20000A128A11720883120313A50003300310FF
:100A3000A50DFF3E031D172D0310250D2304F900FE
:100A400000300A168A1164210A128A110A168A15C0
:100A500011270A128A11BC30F6009030F70082305C
:100A6000F8000A168A11A3220A128A11E330F6004E
:100A70009030F700C230F8000A168A11A3220A1239
:100A80008A11333083120313A500BB30A400DF307A
:100A9000A300A30B492DA40B492DA50B492DFF3015
:100AA0006F2E0030831603132B02183003192A020D
:100AB000031C5B2D5C2D5E2DAA01AB0100302D02C5
:100AC0003C3003192C02031C662D672D692DAC01E7
:100AD000AD0100302F023C3003192E02031C712D92
:100AE000722D742DAE01AF010130B8079730380672
:100AF000031D7B2D7C2D6E2EB80139080319812D25
:100B0000832D0130842D0030B900C03083120313CF
:100B1000A0000A30F2000030F300831603132B0804
:100B2000F5002A08F4000A168A11E5230A128A1130
:100B30007208303E0A128A11E4270A128A11C13063
:100B400083120313A0000A30F2000030F300831672
:100B500003132B08F5002A08F4000A168A116E23E5
:100B60000A128A117208303E0A128A11E4270A1208
:100B70008A11C23083120313A0003A300A128A117C
:100B8000E4270A128A11C33083120313A0000A302B
:100B9000F2000030F300831603132D08F5002C0833
:100BA000F4000A168A11E5230A128A117208303EEF
:100BB0000A128A11E4270A128A11C430831203131D
:100BC000A0000A30F2000030F300831603132D0852
:100BD000F5002C08F4000A168A116E230A128A11F5
:100BE0007208303E0A128A11E4270A128A11C530AF
:100BF00083120313A0003A300A128A11E4270A1262
:100C00008A11C63083120313A0000A30F2000030AC
:100C1000F300831603132F08F5002E08F4000A16BC
:100C20008A11E5230A128A117208303E0A128A11CB
:100C3000E4270A128A11C73083120313A0000A3076
:100C4000F2000030F300831603132F08F5002E087E
:100C5000F4000A168A116E230A128A117208303EB5
:100C60000A128A11E4270A128A118316031339081B
:100C700003193B2E3C2E6E2E612E3C30F600913037
:100C8000F700C030F8000A168A11A3220A128A114E
:100C90006E2E3C30F6009130F700C330F8000A1693
:100CA0008A11A3220A128A116E2E3C30F60091306E
:100CB000F700C630F8000A168A11A3220A128A1118
:100CC0006E2E831203135308003A03193D2E013A86
:100CD0000319492E033A0319552E6E2EAA30080027
:100CE00083120313A60011302206031D782E792EDD
:100CF0007F2E3F30A600D20183160313B70183165F
:100D000003133708031D852E862E202F10308312E3
:100D100003132606031D8D2E8E2EA82E043052029C
:100D20000318932E942EA82E5208C53EA0002A30F8
:100D30000A128A11E4270A128A1183120313520835
:100D4000D63E84003130831380000130D207C62E96
:100D500020302606031DAD2EAE2EC62E04305202C4
:100D60000318B32EB42EC62E5208C53EA0002A305A
:100D70000A128A11E4270A128A11831203135208F5
:100D8000D63E8400303083138000A52E04305206F6
:100D9000031DCB2ECC2E202FF2010C300A168A1503
:100DA0009E270A128A110D3083120313A500AF305B
:100DB000A400B530A300A30BDB2EA40BDB2EA50BE8
:100DC000DB2EE22E0A168A1511270A128A118312C7
:100DD0000313D201013083160313B70003308312CB
:100DE0000313A5008A30A4005530A300A30BF62EF0
:100DF000A40BF62EA50BF62E2230F6009030F7004D
:100E00008030F8000A168A11A3220A128A11F20110
:100E1000C5300A168A159E270A128A11F2010F3070
:100E20000A168A159E270A128A11A5308312031307
:100E3000A300A30B192F1C2F3F3083120313A6000E
:100E40008316031337080319262F272FE22F10309C
:100E5000831203132606031D2E2F2F2F492F043034
:100E600052020318342F352F492F5208C53EA000D7
:100E70002A300A128A11E4270A128A1183120313F4
:100E80005208D23E84003130831380000130D207F3
:100E9000672F20302606031D4E2F4F2F672F04305B
:100EA00052020318542F552F672F5208C53EA00039
:100EB0002A300A128A11E4270A128A1183120313B4
:100EC0005208D23E8400303083138000462F043015
:100ED0005206031D6C2F6D2FE22FF2010C300A1603
:100EE0008A159E270A128A110D3083120313A5005A
:100EF000AF30A400B530A300A30B7C2FA40B7C2F34
:100F0000A50B7C2F832F0A168A1511270A128A1126
:100F1000D230F200D630F3000430F4000030F50097
:100F20000A168A116B240A128A1172087304031DAF
:100F30009A2F9B2FCB2FD630F5000030F6000030D3
:100F40000A168A1122220A128A111130F6009030F4
:100F5000F7008030F8000A168A11A3220A128A11BB
:100F6000E330F6009030F700C230F8000A168A111C
:100F7000A3220A128A114D3083120313A5001930DF
:100F8000A4004F30A300A30BC32FA40BC32FA50BAA
:100F9000C32FFF30E32F6330F6009030F70080302E
:100FA000F8000A168A11A3220A128A112B30F600C1
:100FB0009130F700C530F8000A168A11A3220A12F0
:100FC0008A11BB2FAA30080083120313A100F2017B
:100FD00020080A168A159E270A128A11F201F20ABF
:100FE0008312031321080A168A159E270A128A11F2
:100FF0000800831603139F17831203131F1408009E
:101002000A30831203135906031D082809280A28E7
:10101200D9010A30F20059080A168A1546270A121F
:101022008A15053EF800BC30F5000030F60078085D
:101032000A168A1122220A128A1501308312031318
:10104200D9070800831203130608F2003F30F205A5
:101052003F30720603192E282F283F287A08031DD5
:10106200332834283F280130FA0083160313B501D0
:10107200B60183120313DA017208FB007A0803191E
:1010820043284428812872087B06031D49284A28E0
:101092008128013083160313B5070318B60A0030FE
:1010A200B6073608803AFF0080307F02031D5B28B6
:1010B20014303502031C5E285F28AD288312031307
:1010C2005A08031D65286628AD280130DA0037303A
:1010D2007B06031D6D286E2870281030AE282F3035
:1010E2007B06031D7528762878282030AE281F300D
:1010F2007B06031D7D287E2880283030AE28AD284F
:101102003F307206031D86288728AD287A08031906
:101112008B288C28AD28831603133608803AFF00EB
:1011220080307F02031D97281430350203189A2855
:101132009B28A528831203135A08031DA128A2285D
:10114200A528FA017B08AE28FA0183160313B5011C
:10115200B60183120313DA013F300800831203132E
:10116200A40024080319B628B728CB28F91FBA28E7
:10117200BB28CB287609A6007709A7007809A80022
:101182007909A900A60A0319A70A0319A80A0319CB
:10119200A90AD3287908A9007808A8007708A70027
:1011A2007608A6007908780477047604031DDA2805
:1011B200DB28E4280030F9000030F8000030F700A6
:1011C2000030F60064299630A500F2280130A50708
:1011D20001300310A90CA80CA70CA60CFF3E031D9E
:1011E200EA28FE302905031DF728F828E7281229E6
:1011F2000130A5070130A607003003180130A70708
:10120200003003180130A807003003180130A90785
:1012120001300310A90CA80CA70CA60CFF3E031D5D
:101222000A29FF302905031D17291829F92824291D
:101232000130A5020130A0000310A60DA70DA80DD4
:10124200A90DA00B1D29A81B272928292E29023008
:10125200250203182D292E29192925183129322969
:101262003A29FF30A605FF30A7057F30A805FF30D9
:10127200A9050310A50C2508A000A101A201A30144
:1012820018300310A00DA10DA20DA30DFF3E031DEA
:1012920042292008A6042108A7042208A80423083A
:1012A200A90424080319562957295C29F91F5A2928
:1012B2005B295C29A9172908F9002808F8002708E2
:1012C200F7002608F600080083120313A500553024
:1012D2002206031D6D296E297629D6010530D70015
:1012E2000A168A1511270A128A1537308312031338
:1012F2002506031D7D297E299029043056020318F4
:101302008329842990290A168A1511270A128A1517
:10131200013083120313D6070530D700A5292F30D9
:101322002506031D95299629A529560803199A29E8
:101332009B29A5290A168A1511270A128A15013036
:1013420083120313D6028D295708031DA929AA293E
:10135200AC2933301A2A043056020318B129B229B3
:10136200E5298130A0002A300A128A11E4270A12E4
:101372008A15831203135608A3002307DA3E84005A
:1013820083130008F600840A00088403F700833000
:10139200F8000A168A11A3220A128A15831203136D
:1013A2005608A3002307DC3E840083130008F600DE
:1013B200840A00088403F700C330F8000A168A1171
:1013C200A3220A128A15172AC130A0002A300A1253
:1013D2008A11E4270A128A15831203135608A300FE
:1013E2002307D83E840083130008F600840A00080D
:1013F2008403F7008330F8000A168A11A3220A1226
:101402008A15831203135608A3002307DA3E8400C9
:1014120083130008F600840A00088403F700C3302F
:10142200F8000A168A11A3220A128A1583120313DC
:101432005608080083120313A50081302206031DFB
:10144200232A242A252AD40137302506031D2A2AD5
:101452002B2A422A5908FF3EA300FF30031800300E
:10146200A4002408803A803C031D392A2308540230
:1014720003183C2A3D2A422A013083120313D4075F
:10148200512A2F30831203132506031D492A4A2AA3
:10149200512A540803194E2A4F2A512A0130D402E4
:1014A2000A30F20054080A168A1546270A128A15CB
:1014B200053E83160313BA0083120313AA01AB017C
:1014C200831203132A08A03E84002A0883160313FA
:1014D2003A070A168A1178220A128A1583138000A3
:1014E200013083120313AA070318AB0A0030AB07BB
:1014F2002B08803AFF0080307F02031D822A0A30C7
:101502002A02031C852A862A612A0030F6009030BE
:10151200F7008030F8000A168A11A3220A128A15EF
:10152200C03083120313A0005408303E0A128A11FD
:10153200E4270A128A15C23083120313A00083160D
:10154200031320080A128A11E4270A128A15C330EB
:1015520083120313A0008316031321080A128A11AF
:10156200E4270A128A15C43083120313A0003A300A
:101572000A128A11E4270A128A15C530831203134C
:10158200A0008316031322080A128A11E4270A1202
:101592008A15C63083120313A0008316031323088F
:1015A2000A128A11E4270A128A15C730831203131A
:1015B200A0003A300A128A11E4270A128A15C830AA
:1015C20083120313A0008316031324080A128A113C
:1015D200E4270A128A15C93083120313A000831666
:1015E200031325080A128A11E4270A128A15CB303E
:1015F20083120313A0008316031326080A128A110A
:10160200E4270A128A15CC3083120313A000831632
:10161200031327080A128A11E4270A128A15CE3008
:1016220083120313A0008316031328080A128A11D7
:10163200E4270A128A15CF3083120313A0008316FF
:10164200031329080A128A11E4270A128A150030A4
:1016520083120313A9000030A8000030A700003055
:10166200A600013083120313A607003003180130CD
:10167200A707003003180130A80700300318013013
:10168200A9072908031D542B2808031D542B0730D2
:101692002702031D502BD0302602031D502B031CA2
:1016A200532B542B322B080083120313B201B301C4
:1016B2003330F3009030F4000A168A11AB210A127B
:1016C2008A152430F3009130F4000A168A11AB21F6
:1016D2000A128A150A300A168A15C8260A128A15AB
:1016E2000A300A168A15C8260A128A150D300A16F9
:1016F2008A15C8260A128A157330F6009030F70050
:101702008130F8000A168A11A3220A128A15E330E0
:10171200F6009030F700C230F8000A168A11A322B0
:101722000A128A15742C0A30F2008312031332084B
:101732000A168A1546270A128A15053E83120313D2
:10174200AD00B4013408233E840034082D070A1684
:101752008A1178220A128A158313800001308312BB
:101762000313B4070A303402031CB82BB92BA32B82
:10177200A53083120313A000A00BBD2BC02B831234
:1017820003133208303E0A168A15C8260A128A1531
:1017920020300A168A15C8260A128A1583120313E4
:1017A20023080A168A15C8260A128A1583120313F9
:1017B20024080A168A15C8260A128A153A300A1609
:1017C2008A15C8260A128A158312031325080A16D7
:1017D2008A15C8260A128A158312031326080A16C6
:1017E2008A15C8260A128A153A300A168A15C82698
:1017F2000A128A158312031327080A168A15C826A5
:101802000A128A158312031328080A168A15C82693
:101812000A128A1520300A168A15C8260A128A1553
:101822008312031329080A168A15C8260A128A1572
:10183200831203132A080A168A15C8260A128A1561
:1018420020300A168A15C8260A128A158312031333
:101852002B080A168A15C8260A128A158312031340
:101862002C080A168A15C8260A128A154030F30077
:101872009030F4000A168A11AB210A128A15003040
:1018820083120313B1000030B0000030AF0000300B
:10189200AE00013083120313AE070030031801308B
:1018A200AF07003003180130B007003003180130D1
:1018B200B1073108031D6C2C3008031D6C2C073056
:1018C2002F02031D682CD0302E02031D682C031C2E
:1018D2006B2C6C2C4A2C013083120313B2070318B1
:1018E200B30A0030B307831203133308803AA0000F
:1018F20080302002031D7F2C59083202031C822CE7
:10190200832C942B0A300A168A15C8260A128A15C5
:101912004D3083120313A2001930A1004F30A000F2
:10192200A00B912CA10B912CA20B912CFF30080043
:1019320083120313AA0011302206031DA12CA22C2C
:10194200B12CD501033083160313BB00CE01CF01A6
:10195200D001D1013F3083120313AA000530D70012
:101962005708031DB52CB62CB82C3330352E103049
:101972002A06031DBD2CBE2CDA2C04305502031896
:10198200C32CC42CDA2C5508C53EA0002A300A12FA
:101992008A11E4270A128A15831203135508CE3ED0
:1019A20084003130831380000130D5070530D70021
:1019B200F82C20302A06031DDF2CE02CF82C0430F2
:1019C20055020318E52CE62CF82C5508C53EA0005C
:1019D2002A300A128A11E4270A128A158312031383
:1019E2005508CE3E8400303083138000D52C04305D
:1019F2005506031DFD2CFE2C352E5508CE3E8400C7
:101A020083138001AB012B08263E84002B080A16A3
:101A12008A1178220A128A158313800001308312F8
:101A22000313AB0704302B02031C182D192D042DB0
:101A32002B08263E84008001F2010C300A168A151A
:101A42009E270A128A150D3083120313A500AF30A8
:101A5200A400B530A300A30B2C2DA40B2C2DA50B99
:101A62002C2D332D0A168A1511270A128A152630B3
:101A7200F200CE30F3000A168A11D1210A128A1519
:101A820072087304031D462D472D632DAE30F600F8
:101A92009030F7008130F8000A168A11A3220A1248
:101AA2008A151A3083120313A5005E30A4006D302C
:101AB200A300A30B5A2DA40B5A2DA50B5A2D612D51
:101AC2004430352E013083160313BB023B08031D3D
:101AD2006B2D6C2DD72D0A168A1511270A128A151D
:101AE2005330F6009030F7008030F8000A168A1161
:101AF200A3220A128A150730F6009130F700C0308F
:101B0200F8000A168A11A3220A128A153230F60048
:101B12009130F700CC30F8000A168A11A3220A127B
:101B22008A153C3083120313D800CB2DC930A00094
:101B32000A30F2000030F3005808A300A401230881
:101B4200F4002408F5000A168A11C1260A128A1521
:101B52007208303E0A128A11E4270A128A15CA3024
:101B620083120313A0000A30F2000030F300580879
:101B7200A300A4012308F4002408F5000A168A1120
:101B820057250A128A157208303E0A128A11E42772
:101B92000A128A15831203135808031DD12DD22D60
:101BA200972D033083160313BB00092E8230F600F3
:101BB2009030F7008030F8000A168A11A3220A1228
:101BC2008A15A030F6009030F700C030F8000A16EF
:101BD2008A11A3220A128A15CE3083120313A0009F
:101BE200831603133B08303E0A128A11E4270A12B5
:101BF2008A151A3083120313A5005E30A4006D30DB
:101C0200A300A30B022EA40B022EA50B022E092E5B
:101C120083120313D5010A168A1511270A128A158F
:101C22002430F6009030F7008130F8000A168A114D
:101C3200A3220A128A15F201C5300A168A159E27B6
:101C42000A128A15F2010F300A168A159E270A1205
:101C52008A15A53083120313A300A30B2E2E312E57
:101C6200053083120313D7000800831203133108CF
:101C7200BB008030BB053108B2003207C200B01F82
:101C8200432E442E452E421442080319492E4A2E51
:101C92005A2E420A031D4E2E4F2E572E0030B100EF
:101CA2000030B0000030AF000030AE00B017B1011C
:101CB200622E0030B1000030B0000030AF000030C2
:101CC200AE002D088039BB062D08B2003207C300D2
:101CD200AC1F6C2E6D2E6E2E431443080319722E08
:101CE200732E832E430A031D772E782E802E00300A
:101CF200AD000030AC000030AB000030AA00AC17E1
:101D0200AD018B2E0030AD000030AC000030AB00D6
:101D12000030AA002D082C042B042A04031D922E45
:101D2200932EAA2E0030B1000030B0000030AF0078
:101D32000030AE008030B0047F30B1043B08B10403
:101D42003108AD003008AC002F08AB002E08AA0005
:101D5200FF2F4208031DAE2EAF2EB82E0030AD006D
:101D62000030AC000030AB000030AA00FF2F420868
:101D7200B200B3013308B50043083202B400031CB9
:101D8200B50334087F3EBC0035080318013E003E0F
:101D9200BD003108BA003008B9002F08B8002E087B
:101DA200B7000030B1000030B0000030AF000030AA
:101DB200AE000030C1000030C0000030BF00003073
:101DC200BE00C3012C2F43080319E82EE92E092F68
:101DD2000130B2000310B70DB80DB90DBA0DB20B38
:101DE200EB2E0130B2000310AE0DAF0DB00DB10DF0
:101DF200B20BF42EC11FFE2EFF2E002F2E14013027
:101E0200B2000310BE0DBF0DC00DC10DB20B022FEB
:101E12002D083A02031D172F2C083902031D172F14
:101E22002B083802031D172F2A083702031C1A2F0A
:101E32001B2F2A2F41172A08B7022B08031C2B0F2E
:101E4200B8022C08031C2C0FB9022D08031C2D0FFD
:101E5200BA020130C3071A304302031C312F322F5A
:101E6200E42E3A083904380437040319392F3A2F7B
:101E7200592F3E14592F0130B2000310AE0DAF0D91
:101E8200B00DB10DB20B3E2FC11F482F492F4A2F63
:101E92002E140130B2000310BE0DBF0DC00DC10DD6
:101EA200B20B4C2FFF30BC070318BD0AFF30BD0731
:101EB200B01F5C2F5D2F3C2FC301C11F612F622F0A
:101EC2007E2FFF303E05B200FF303F05B300FF30EA
:101ED2004005B4007F304105B500350834043304B1
:101EE20032040319752F762F792F0130C3007E2F0C
:101EF2002E1C7C2F7D2F7E2F762F43080319822FD5
:101F0200832FB42F0130AE07003003180130AF0722
:101F1200003003180130B007003003180130B10758
:101F2200311C942F952FB42F2E08B2002F08B30026
:101F32003008B4003108B5000130B600350DB50CDB
:101F4200B40CB30CB20CB60B9F2F3508B100340899
:101F5200B0003308AF003208AE000130BC070318EE
:101F6200BD0A0030BD073D08803AFF0080307F0285
:101F7200031DBD2FFF303C02031CC02FC12FCF2FEA
:101F8200FF3083120313BC000030BD000030B100EB
:101F92000030B0000030AF000030AE0083120313F7
:101FA2003D08803AFF0080307F02031DDA2F0130A6
:101FB2003C020318DD2FDE2FEB2F83120313BC012B
:101FC200BD010030B1000030B0000030AF00003081
:101FD200AE00BB01831203133C08C200421CF22F65
:101FE200F32FF52FB017F72F7F30B0054208B2005C
:101FF2000310320CB1003B08B104A12E08002334B7
:102002002034543449344D3445342034203420347F
:1020120020342034453420342034533450340034B6
:10202200503461347334733477346F3472346434BB
:1020320020344334683461346E3467346534643434
:1020420000345234653445346E3474346534723439
:102052002034503461347334733477346F347234CF
:1020620064340034433461347234203442346C3486
:10207200613463346B34203442346F3478340A343C
:102082000D340034543469346D34653420342834CA
:10209200483448343A344D344D343A34533453345A
:1020A2002934003459346F34753420346134723435
:1020B2006534203442346C346F3463346B346534A9
:1020C20064340034503461347334733477346F348D
:1020D2007234643420344334683461346E34673487
:1020E200653400346C346F346734203444346F34D4
:1020F20077346E346C346F346134643465346434F0
:102102000034573472346F346E34673420345034B0
:1021120061347334733477346F347234643400341A
:1021220045346E3474346534723420344E3465343C
:10213200773420345034613473347334003441348E
:102142007434743465346D347034743420344C34E3
:102152006534663474343A3400344C346F34673442
:1021620069346E34203453347534633463346534E3
:10217200733473340034543469346D346534203428
:102182004334683461346E34673465346434003403
:102192004C346F3467347334203443346C346534D4
:1021A2006134723465346434003444346F347734C7
:1021B2006E346C346F346134643420346C346F3474
:1021C20067340034533475346334633465347334A0
:1021D2007334663475346C346C347934003443347B
:1021E200683461346E346734653420347034613459
:1021F2007334733400345234653473346534743454
:102202002034543469346D346534003457346134C5
:1022120069347434203466346F34723420340034B8
:1022220043346C3465346134723420346C346F342A
:1022320067340034563469346534773420346C346E
:102242006F34673400344C346F3467347334203461
:102252003A3400344634613469346C34653464345D
:1022620000345334653463347334003431343134DC
:1022720031343134003420342034003447343134A2
:102282000034473432340034473433340034473472
:102292003434003443344C34003444344C34003449
:1022A20056344C34003447344E34003443344F34C3
:1022B200003443345034003447345234003443340D
:0422C200543400345C
:1022C80083120313A0000A168A15A0260A168A117B
:1022D800D0300A168A15B2260A168A1183120313F9
:1022E80020080A168A15B2260A168A1179080A16CB
:1022F8008A15B2260A168A110A168A15A9260A16F6
:102308008A110800F601F701721C8B298C29922981
:102318007408F6070318F70A7508F7070130031061
:10232800F40DF50DFF3E031D932901300310F30C46
:10233800F20CFF3E031D9A2972087304031DA52998
:10234800A62988297708F3007608F2000800C02932
:102358007408FF00730884000A168A1500200A16FC
:102368008A110A168A15C8260A168A110130F30737
:102378000318F40A0030F407740883120313FF00EB
:10238800730884000A168A1500200A168A11003A72
:10239800031DCF29D029AC290800D6290130F2071E
:1023A8000130F3077308840083130008F4007208EF
:1023B800840000087406031DE229E329EA2972084B
:1023C80084000008031DE929EA29D229730884003A
:1023D8000008F400720884000008F500740875020B
:1023E800F200F301031CF303080083120313D9015D
:1023F800C930F6009030F7008230F8000A168A11CA
:10240800A3220A168A11E330F6009030F700C23092
:10241800F8000A168A11A3220A168A113330831289
:102428000313A200BB30A100DF30A000A00B1A2AC2
:10243800A10B1A2AA20B1A2AFF300800F7003C2A1F
:102448007608FF00750884000A168A1500200A1607
:102458008A11F30077080A168A1580270A168A1146
:102468000130F5070318F60A0030F6070130F707C0
:10247800760883120313FF00750884000A168A156C
:1024880000200A168A11003A031D4B2A4C2A242AD6
:102498000800F4000A168A15A0260A168A11D030F8
:1024A8000A168A15B2260A168A1174080A168A1597
:1024B800B2260A168A110A168A15BD260A168A1124
:1024C800D1300A168A15B2260A168A1100300A1661
:1024D8008A15BE270A168A11F5000A168A15A92632
:1024E8000A168A1175080800F4000A168A15A0262B
:1024F8000A168A11A0300A168A15B2260A168A11F7
:1025080074080A168A15B2260A168A110A168A1536
:10251800BD260A168A11A1300A168A15B2260A168D
:102528008A1100300A168A15BE270A168A11F50084
:102538000A168A15A9260A168A1175080800F201D2
:1025480078080A168A159E270A168A11C12AF201E6
:10255800F20A7708FF00760884000A168A15002018
:102568000A168A110A168A159E270A168A11013038
:10257800F6070318F70A0030F707770883120313E2
:10258800FF00760884000A168A1500200A168A11A8
:10259800003A031DD02AD12AAB2A0800831203135C
:1025A80094152608AA002708AB002808AC002908BB
:1025B800AD0002300310AA0DAB0DAC0DAD0DFF3E02
:1025C800031DDE2A2D08F5002C08F4002B08F30063
:1025D8002A08F2000130F9003130F8002D30F700F8
:1025E8000030F6000A168A1124270A168A11720882
:1025F800FF3E8316031393008312031394160800F7
:10260800831203138C1C092B0A2B302B01308316E1
:102618000313B3070318B40A0030B407E2303306D3
:10262800043003193406031D1A2B1B2B2E2BB30160
:10263800B4018312031358080319232B242B272BC7
:102648000130D8022E2B570803192B2B2C2B2E2B9D
:102658000130D70283128C1071088A00700E830033
:10266800FE0E7E0E090083120313981783160313B8
:10267800181598168312031318162608AA00270897
:10268800AB002808AC002908AD0004300310AA0DDF
:10269800AB0DAC0DAD0DFF3E031D4A2B2D08F5000B
:1026A8002C08F4002B08F3002A08F2000130F90086
:1026B8003130F8002D30F7000030F6000A168A1184
:1026C80024270A168A117208FF3E831603139900FD
:1026D8008C160800720873040319732B742BA12B32
:1026E8000130F600802B01300310F20DF30DFF3E90
:1026F800031D782B0130F607F31F832B842B772BD0
:1027080073087502031D8A2B72087402031C8D2B33
:102718008E2B942B7208F4027308031CF503F50240
:1027280001300310F30CF20CFF3E031D952B013012
:10273800F602031DA02BA12B842B7508F300740847
:10274800F2000800003083120313A9000130A8002A
:102758008630A700A030A6000A168A11D2220A16CF
:102768008A110A168A156C270A168A110A128A1102
:10277800F9270A168A110A168A1592260A168A1144
:102788000A168A15D3260A168A110A168A152227C6
:102798000A168A110A168A15F7260A168A110B17BD
:1027A8008B17003083120313A9000030A8002530CE
:1027B800A7008030A6000A168A1137230A168A1144
:1027C8000800F701F801720873040319EC2BED2BCC
:1027D800222C0130F600F92B01300310F20DF30D15
:1027E800FF3E031DF12B0130F607F31FFC2BFD2BD9
:1027F800F02B01300310F70DF80DFF3E031DFE2BE3
:1028080073087502031D0A2C72087402031C0D2C30
:102818000E2C152C7208F4027308031CF503F5023C
:10282800771401300310F30CF20CFF3E031D162C35
:102838000130F602031D212C222CFD2B7808F30011
:102848007708F20008007208F9004F2C0130F502F1
:102858000030031CF603F6027408F8007308F7004A
:10286800F30A0319F40A780883120313FF007708A0
:1028780084000A168A1500200A168A11FF007908B2
:10288800F90A84007F08831380000008031D4D2C7B
:102898004E2C4F2C5C2C75087604031D542C552C9B
:1028A8002A2C5C2C79088400831380010130F907F5
:1028B8000130F5020030031CF603F602750A031D09
:1028C800692C760A031D692C6A2C562C08000130E5
:1028D800F4020030031CF503F502740A031D782C7A
:1028E800750A031D782C792C862CF201F301B52C7E
:1028F8000130F2070130F3070130F4020030031C05
:10290800F503F502720884008313000803198D2C5F
:102918008E2CA72C7308840000080319942C952C7E
:10292800A72C7408750403199A2C9B2CA72C7308E0
:1029380084000008F600720884000008760603196F
:10294800A62CA72C7C2C730884000008F6007208BB
:1029580084000008F70076087702F200F301031CF0
:10296800F303080002300A168A114D220A168A114A
:1029780083160313B00001300A168A114D220A1675
:102988008A1183160313B10000300A168A114D22EA
:102998000A168A1183160313B2003008F6000430B1
:1029A8000310F60CFF3E031DD42C76080339303E85
:1029B800C70030080F39303EC8003108F60004302F
:1029C8000310F60CFF3E031DE42C76080739303E51
:1029D800C90031080F39303ECA003208F600043009
:1029E8000310F60CFF3E031DF42C76080739303E21
:1029F800CB0032080F39303ECC00CD010800023040
:102A0800F6009030F7008230F8000A168A11A322E7
:102A18000A168A110A168A115F260A168A11831263
:102A280003132208F6000130F700CB30F8000A162D
:102A38008A11A3220A168A11CE3083120313A0002A
:102A48000A30F2000030F3002308A400A50124088E
:102A5800F4002508F5000A168A11C1260A168A11FB
:102A68007208303E0A128A11E4270A168A11CF30FA
:102A780083120313A0000A30F2000030F300230889
:102A8800A400A5012408F4002508F5000A168A11F7
:102A980057250A168A117208303E0A128A11E4274D
:102AA8000A168A110800F701F51F5B2D5C2D632DAE
:102AB800F409F509F40A0319F50A0130F700F31FC0
:102AC800662D672D6C2DF209F309F20A0319F30A32
:102AD800720873040319712D722D9F2D0130F600B1
:102AE8007E2D01300310F20DF30DFF3E031D762DF0
:102AF8000130F607F31F812D822D752D730875029D
:102B0800031D882D72087402031C8B2D8C2D922DA9
:102B18007208F4027308031CF503F5020130031070
:102B2800F30CF20CFF3E031D932D0130F602031D3A
:102B38009E2D9F2D822D77080319A32DA42DA92D35
:102B4800F409F509F40A0319F50A7508F30074087D
:102B5800F2000800C330F700CD30F600F60BB22DB6
:102B6800F70BB22DF20133300A168A159E270A1682
:102B78008A111B30F7009E30F600F60BC12DF70BBB
:102B8800C12D0000F20133300A168A159E270A1655
:102B98008A11A630F600F60BCF2D0000F201333073
:102BA8000A168A159E270A168A11DA2DDB2D0000CF
:102BB800F20138300A168A159E270A168A11A6309D
:102BC800F600F60BE52D0000F20101300A168A1511
:102BD8009E270A168A110430F7003D30F600F60BDE
:102BE800F32DF70BF32DF82DF2010C300A168A1588
:102BF8009E270A168A11A630F600F60B012E000051
:102C080008000A168A11B6240A168A11BC30F20086
:102C1800C730F3000030F4000630F5000030F6004D
:102C28000A168A1127240A168A11C230F200831262
:102C380003132008F3002108F4000230F5000030E7
:102C4800F6000A168A1127240A168A110A30F20099
:102C58000030F300831203132208A300A401230801
:102C6800F4002408F5000A168A11C1260A168A11EA
:102C78007208303E83160313C4000A30F200003095
:102C8800F300831203132208A300A4012308F4000D
:102C98002408F5000A168A1157250A168A1172089F
:102CA800303E83160313C500C6010A128A15012097
:102CB8000A168A1108000A168A11B6240A168A11F9
:102CC800C23083120313A0008316031347080A12A5
:102CD8008A11E4270A168A11C33083120313A0004D
:102CE8008316031348080A128A11E4270A168A1160
:102CF800C43083120313A0003A300A128A11E42761
:102D08000A168A11C53083120313A0008316031311
:102D180049080A128A11E4270A168A11C630831252
:102D28000313A000831603134A080A128A11E42722
:102D38000A168A11C73083120313A0003A300A1208
:102D48008A11E4270A168A11C83083120313A000D7
:102D5800831603134B080A128A11E4270A168A11EC
:102D6800C93083120313A000831603134C080A12F8
:102D78008A11E4270A168A110800F701F31FC52EE5
:102D8800C62ECD2EF209F309F20A0319F30A01300F
:102D9800F700F51FD02ED12ED82EF409F509F40A24
:102DA8000319F50A0130F706F801F90172087304EE
:102DB8000319DF2EE02E152F0130F600EC2E01301E
:102DC8000310F20DF30DFF3E031DE42E0130F6074C
:102DD800F31FEF2EF02EE32E01300310F80DF90D3E
:102DE800FF3E031DF12E73087502031DFD2E7208A8
:102DF8007402031C002F012F082F7208F4027308B5
:102E0800031CF503F502781401300310F30CF20CDF
:102E1800FF3E031D092F0130F602031D142F152F45
:102E2800F02E77080319192F1A2F1F2FF809F909FF
:102E3800F80A0319F90A7908F3007808F20008007B
:102E4800003083120313A4000030A3000030A20056
:102E58000030A10075087404730472040319352F37
:102E6800362F812F0130A500442F0130A000031018
:102E7800F20DF30DF40DF50DA00B3B2F0130A50756
:102E8800F51F472F482F392F0130A0000310A10D3F
:102E9800A20DA30DA40DA00B4A2F75087902031DDE
:102EA8005F2F74087802031D5F2F73087702031DD4
:102EB8005F2F72087602031C622F632F722F72082D
:102EC800F6027308031C730FF7027408031C740FCF
:102ED800F8027508031C750FF9022114013003105C
:102EE800F50CF40CF30CF20CFF3E031D732F0130AC
:102EF800A502031D802F812F482F2408F5002308E1
:102F0800F4002208F3002108F200080003108312DD
:102F18000313460D470DCD004D08031D942F952F23
:102F28009E2F0030C7000030C6000030C5000030BA
:102F3800C400FF2F4408C8004508C9004608CA0055
:102F48004708CB001F300310CB0CCA0CC90CC80CA7
:102F5800FF3E031DA72F4808CC00C617FF30C40545
:102F6800FF30C505FF30C6050030C7059630CD02D5
:102F7800CD1FBF2FC02FD82F4D08803A973E03187A
:102F8800C62FC72FC82F952F01300310C70CC60CAA
:102F9800C50CC40CFF3E031DC92F0130CD07031D0E
:102FA800D62FD72FC82FEF2F20304D02031CDD2F2F
:102FB800DE2FEA2F952F0130C8000310C40DC50D70
:102FC800C60DC70DC80BE12F0130CD024D08031DFA
:102FD800EE2FEF2FDF2F4C080319F32FF42FFF2FBD
:102FE800C409C509C609C709C40A0319C50A0319CA
:102FF800C60A0319C70A0800FF1B0A2883137F188B
:1030080083170008840A0319FF0A08007F087F391C
:0C3018008A000408840A0319FF0A8200E1
:103D24008316031306083F388600080064008001E8
:103D3400840A0406031900340406992E0A168A1507
:103D4400EA260A168A1583160313111408000A16A4
:103D54008A15EA260A168A15831603131115080014
:103D6400F2000A168A15EA260A168A1572088312C0
:103D74000313930008000A168A15A9260A168A1541
:103D84000A168A15A0260A168A150800F200720877
:103D94008312031399000C1ED02ED12ECD2E0C129B
:103DA4000800831603138801091189100A168A1161
:103DB400AE250A168A150800543491345D349134C2
:103DC4003F349134423491344534913448349134FD
:103DD400831603131419EF2EF02EEA2E11081F393F
:103DE400031DF52EF62EEA2E080083120313121477
:103DF4009214FA308316031392008C148312031363
:103E0400121508001B34913411349134D634903493
:103E1400FC349034F03490344F344E340034F20196
:103E240001300A168A159E270A168A150430F700EF
:103E34003D30F600F60B1C2FF70B1C2F212F08002A
:103E440000300A168A1178220A168A15F6007F3085
:103E5400F6057608F30000300A168A1580270A163C
:103E64008A150800831203131F151F193A2F3B2FBD
:103E7400372F1E08F500831603131E08F400750877
:103E8400F3007408F2000800F400F301741C4B2FD3
:103E94004C2F4E2F7208F3070310F20D0310F40C8D
:103EA4007408031D562F572F482F730808007E08E7
:103EB4008A007F0882000A168A1559270A168A156D
:103EC4008000840A04087D0603190034FF0A0319DC
:103ED400FE0A5D2F00300A168A114D220A168A1531
:103EE40083120313A1007F30A1052108F9000030DB
:103EF4000A168A1164210A168A150800F4000A16A3
:103F04008A15A0260A168A15A0300A168A15B22622
:103F14000A168A1574080A168A15B2260A168A150C
:103F240073080A168A15B2260A168A150A168A15FD
:103F3400A9260A168A150800F5007218A22FA62FC2
:103F4400831203130915A92F83120313091175088A
:103F540088008914A630F300F30BAE2F00008312FF
:103F6400031389101B30F4009E30F300F30BB82FB9
:103F7400F40BB82F00000800F2000A168A15EA268E
:103F84000A168A158316031391150A168A15EA264A
:103F94000A168A15831203131308F3007203031D10
:103FA400D42FD52FD92F831603139116DC2F831604
:103FB400031391121116730808007208F7007408AD
:103FC400F6007308F500F30A0319F40A760883125D
:103FD4000313FF00750884000A168A1500200A16C8
:103FE4008A15FF007708F70A84007F08831780008A
:0C3FF4000008031DFE2FFF2FE12F080026
:02400E00FB3F76
:00000001FF
